:100000004BC0000051C000004FC000004DC00000B8
:100010004BC0000049C0000047C0000045C00000C0
:1000200043C0000041C000003FC000003DC00000D0
:100030003BC0000039C0000037C0000035C00000E0
:1000400033C0000031C000002FC000002DC00000F0
:100050002BC0000029C0000027C0000025C0000000
:1000600023C0000048C000001FC000001DC00000E9
:100070001BC0000019C0000017C0000015C0000020
:1000800013C0000011C000000FC000000DC0000030
:100090000BC0000009C0000011241FBECFEFD0E14B
:1000A000DEBFCDBF3CD042C0ABCF11B880EC84B92D
:1000B0008FEF87B988E08AB987E08DB910BA0895C3
:1000C00018B885B1806C85B985B18F7385B90895ED
:1000D0001092CD008CE08093CC0082E08093C80029
:1000E000E9ECF0E088E8808380818061808386E0AD
:1000F0008093CA0008951F920F920FB60F92112499
:100100008F93EF93FF93EEECF0E080818083FF917B
:10011000EF918F910F900FBE0F901F901895D0DF29
:10012000C4DFD6DF789480E885B9FFCFF894FFCF9D
:00000001FF
